:03000000020030CB
:10003000758160907F007403F07C0012009D1200B7
:100040004380F811917003119D22119D119D119112
:100050007001227A017C00907F02EAF0A3E020E0A8
:10006000047400017A20E1047402017A20E204742D
:1000700004017A20E3117406017A2CFCC0E0119D82
:10008000119170FAD0E0220CEA20E10423FA015722
:1000900022907F0274FFF0A3E044F0F42275310057
:1000A000753200753300ECF53078337D04790890B3
:1000B0007F02E9F0E69000D593907F01F01200C72F
:1000C000E903F918DDE9227EFFDEFE227F1E7EC8ED
:0F00D000DEFEDFFA22C0F9A4B0999282F8809088
:00000001FF
