:03000000020100FA
:100100007598007581607C0074FFF58012016B7436
:100110000012016330800B30810830820512016BC0
:10012000211412019030800B3081083082051201B9
:100130006B21147AFE7C00EA1201632080047400B3
:1001400021502081047408215020820C7416215003
:100150002CD4FC12016B210F0CEA30E70423FA21A6
:1001600037210FF5993099FDC29922EC540FF530E3
:10017000EC54F0C4F53178317D0279FDE9F5A0E663
:1001800090019993F590120190E903F918DDED22A1
:100190007F327E64DEFEDFFA223F065B4F666D7DB6
:0301A000077F6F67
:00000001FF
