:03000000020030CB
:1000300075816012009C753F01753E039000D87F6A
:1000400009120054753F02753E019000E17F0F12C6
:10005000005480E2E493F91200BB053EA3DFF522D1
:100060007580FFC292D291D29053807F2087FDC2CB
:100070009022C290C2928880C291D29000C2901207
:1000800000D3221160120072221160C290D29289B4
:1000900080C291D29000C2901200D3227838120010
:1000A0007278381200727838120083780C1200834C
:1000B0007806120083780112008322AA3FBA010455
:1000C0007480800274C0253EF843E08012008312E1
:1000D0000089227EFFDEFE22546869732069732046
:1000E00061646973706C61792070726F6772616DA1
:00000001FF
